{
  "address": "0x4AE4b465d6bf95A37202fDcD649756aB78Df04FC",
  "abi": [
    {
      "inputs": [],
      "stateMutability": "nonpayable",
      "type": "constructor"
    },
    {
      "anonymous": false,
      "inputs": [
        {
          "indexed": true,
          "internalType": "address",
          "name": "owner",
          "type": "address"
        },
        {
          "indexed": true,
          "internalType": "address",
          "name": "approved",
          "type": "address"
        },
        {
          "indexed": true,
          "internalType": "uint256",
          "name": "tokenId",
          "type": "uint256"
        }
      ],
      "name": "Approval",
      "type": "event"
    },
    {
      "anonymous": false,
      "inputs": [
        {
          "indexed": true,
          "internalType": "address",
          "name": "owner",
          "type": "address"
        },
        {
          "indexed": true,
          "internalType": "address",
          "name": "operator",
          "type": "address"
        },
        {
          "indexed": false,
          "internalType": "bool",
          "name": "approved",
          "type": "bool"
        }
      ],
      "name": "ApprovalForAll",
      "type": "event"
    },
    {
      "anonymous": false,
      "inputs": [
        {
          "indexed": true,
          "internalType": "uint256",
          "name": "tokenId",
          "type": "uint256"
        },
        {
          "indexed": false,
          "internalType": "address",
          "name": "seller",
          "type": "address"
        },
        {
          "indexed": false,
          "internalType": "address",
          "name": "owner",
          "type": "address"
        },
        {
          "indexed": false,
          "internalType": "uint256",
          "name": "price",
          "type": "uint256"
        },
        {
          "indexed": false,
          "internalType": "bool",
          "name": "sold",
          "type": "bool"
        }
      ],
      "name": "MarketItemCreated",
      "type": "event"
    },
    {
      "anonymous": false,
      "inputs": [
        {
          "indexed": true,
          "internalType": "address",
          "name": "from",
          "type": "address"
        },
        {
          "indexed": true,
          "internalType": "address",
          "name": "to",
          "type": "address"
        },
        {
          "indexed": true,
          "internalType": "uint256",
          "name": "tokenId",
          "type": "uint256"
        }
      ],
      "name": "Transfer",
      "type": "event"
    },
    {
      "inputs": [
        {
          "internalType": "address",
          "name": "to",
          "type": "address"
        },
        {
          "internalType": "uint256",
          "name": "tokenId",
          "type": "uint256"
        }
      ],
      "name": "approve",
      "outputs": [],
      "stateMutability": "nonpayable",
      "type": "function"
    },
    {
      "inputs": [
        {
          "internalType": "address",
          "name": "owner",
          "type": "address"
        }
      ],
      "name": "balanceOf",
      "outputs": [
        {
          "internalType": "uint256",
          "name": "",
          "type": "uint256"
        }
      ],
      "stateMutability": "view",
      "type": "function"
    },
    {
      "inputs": [
        {
          "internalType": "uint256",
          "name": "tokenId",
          "type": "uint256"
        }
      ],
      "name": "createMarketSale",
      "outputs": [],
      "stateMutability": "payable",
      "type": "function"
    },
    {
      "inputs": [
        {
          "internalType": "string",
          "name": "tokenURI",
          "type": "string"
        },
        {
          "internalType": "uint256",
          "name": "price",
          "type": "uint256"
        }
      ],
      "name": "createToken",
      "outputs": [
        {
          "internalType": "uint256",
          "name": "",
          "type": "uint256"
        }
      ],
      "stateMutability": "payable",
      "type": "function"
    },
    {
      "inputs": [],
      "name": "fetchItemsListed",
      "outputs": [
        {
          "components": [
            {
              "internalType": "uint256",
              "name": "tokenId",
              "type": "uint256"
            },
            {
              "internalType": "address payable",
              "name": "seller",
              "type": "address"
            },
            {
              "internalType": "address payable",
              "name": "owner",
              "type": "address"
            },
            {
              "internalType": "uint256",
              "name": "price",
              "type": "uint256"
            },
            {
              "internalType": "bool",
              "name": "sold",
              "type": "bool"
            }
          ],
          "internalType": "struct NFTMarketplace.MarketItem[]",
          "name": "",
          "type": "tuple[]"
        }
      ],
      "stateMutability": "view",
      "type": "function"
    },
    {
      "inputs": [],
      "name": "fetchMarketItems",
      "outputs": [
        {
          "components": [
            {
              "internalType": "uint256",
              "name": "tokenId",
              "type": "uint256"
            },
            {
              "internalType": "address payable",
              "name": "seller",
              "type": "address"
            },
            {
              "internalType": "address payable",
              "name": "owner",
              "type": "address"
            },
            {
              "internalType": "uint256",
              "name": "price",
              "type": "uint256"
            },
            {
              "internalType": "bool",
              "name": "sold",
              "type": "bool"
            }
          ],
          "internalType": "struct NFTMarketplace.MarketItem[]",
          "name": "",
          "type": "tuple[]"
        }
      ],
      "stateMutability": "view",
      "type": "function"
    },
    {
      "inputs": [],
      "name": "fetchMyNFTs",
      "outputs": [
        {
          "components": [
            {
              "internalType": "uint256",
              "name": "tokenId",
              "type": "uint256"
            },
            {
              "internalType": "address payable",
              "name": "seller",
              "type": "address"
            },
            {
              "internalType": "address payable",
              "name": "owner",
              "type": "address"
            },
            {
              "internalType": "uint256",
              "name": "price",
              "type": "uint256"
            },
            {
              "internalType": "bool",
              "name": "sold",
              "type": "bool"
            }
          ],
          "internalType": "struct NFTMarketplace.MarketItem[]",
          "name": "",
          "type": "tuple[]"
        }
      ],
      "stateMutability": "view",
      "type": "function"
    },
    {
      "inputs": [
        {
          "internalType": "uint256",
          "name": "tokenId",
          "type": "uint256"
        }
      ],
      "name": "getApproved",
      "outputs": [
        {
          "internalType": "address",
          "name": "",
          "type": "address"
        }
      ],
      "stateMutability": "view",
      "type": "function"
    },
    {
      "inputs": [],
      "name": "getListingPrice",
      "outputs": [
        {
          "internalType": "uint256",
          "name": "",
          "type": "uint256"
        }
      ],
      "stateMutability": "view",
      "type": "function"
    },
    {
      "inputs": [
        {
          "internalType": "address",
          "name": "owner",
          "type": "address"
        },
        {
          "internalType": "address",
          "name": "operator",
          "type": "address"
        }
      ],
      "name": "isApprovedForAll",
      "outputs": [
        {
          "internalType": "bool",
          "name": "",
          "type": "bool"
        }
      ],
      "stateMutability": "view",
      "type": "function"
    },
    {
      "inputs": [],
      "name": "name",
      "outputs": [
        {
          "internalType": "string",
          "name": "",
          "type": "string"
        }
      ],
      "stateMutability": "view",
      "type": "function"
    },
    {
      "inputs": [
        {
          "internalType": "uint256",
          "name": "tokenId",
          "type": "uint256"
        }
      ],
      "name": "ownerOf",
      "outputs": [
        {
          "internalType": "address",
          "name": "",
          "type": "address"
        }
      ],
      "stateMutability": "view",
      "type": "function"
    },
    {
      "inputs": [
        {
          "internalType": "uint256",
          "name": "tokenId",
          "type": "uint256"
        },
        {
          "internalType": "uint256",
          "name": "price",
          "type": "uint256"
        }
      ],
      "name": "resellToken",
      "outputs": [],
      "stateMutability": "payable",
      "type": "function"
    },
    {
      "inputs": [
        {
          "internalType": "address",
          "name": "from",
          "type": "address"
        },
        {
          "internalType": "address",
          "name": "to",
          "type": "address"
        },
        {
          "internalType": "uint256",
          "name": "tokenId",
          "type": "uint256"
        }
      ],
      "name": "safeTransferFrom",
      "outputs": [],
      "stateMutability": "nonpayable",
      "type": "function"
    },
    {
      "inputs": [
        {
          "internalType": "address",
          "name": "from",
          "type": "address"
        },
        {
          "internalType": "address",
          "name": "to",
          "type": "address"
        },
        {
          "internalType": "uint256",
          "name": "tokenId",
          "type": "uint256"
        },
        {
          "internalType": "bytes",
          "name": "data",
          "type": "bytes"
        }
      ],
      "name": "safeTransferFrom",
      "outputs": [],
      "stateMutability": "nonpayable",
      "type": "function"
    },
    {
      "inputs": [
        {
          "internalType": "address",
          "name": "operator",
          "type": "address"
        },
        {
          "internalType": "bool",
          "name": "approved",
          "type": "bool"
        }
      ],
      "name": "setApprovalForAll",
      "outputs": [],
      "stateMutability": "nonpayable",
      "type": "function"
    },
    {
      "inputs": [
        {
          "internalType": "bytes4",
          "name": "interfaceId",
          "type": "bytes4"
        }
      ],
      "name": "supportsInterface",
      "outputs": [
        {
          "internalType": "bool",
          "name": "",
          "type": "bool"
        }
      ],
      "stateMutability": "view",
      "type": "function"
    },
    {
      "inputs": [],
      "name": "symbol",
      "outputs": [
        {
          "internalType": "string",
          "name": "",
          "type": "string"
        }
      ],
      "stateMutability": "view",
      "type": "function"
    },
    {
      "inputs": [
        {
          "internalType": "uint256",
          "name": "tokenId",
          "type": "uint256"
        }
      ],
      "name": "tokenURI",
      "outputs": [
        {
          "internalType": "string",
          "name": "",
          "type": "string"
        }
      ],
      "stateMutability": "view",
      "type": "function"
    },
    {
      "inputs": [
        {
          "internalType": "address",
          "name": "from",
          "type": "address"
        },
        {
          "internalType": "address",
          "name": "to",
          "type": "address"
        },
        {
          "internalType": "uint256",
          "name": "tokenId",
          "type": "uint256"
        }
      ],
      "name": "transferFrom",
      "outputs": [],
      "stateMutability": "nonpayable",
      "type": "function"
    },
    {
      "inputs": [
        {
          "internalType": "uint256",
          "name": "_listingPrice",
          "type": "uint256"
        }
      ],
      "name": "updateListingPrice",
      "outputs": [],
      "stateMutability": "payable",
      "type": "function"
    }
  ],
  "transactionHash": "0x3cf976b0f5a239606d6f3dde2d847120f23567ae0e1166b591c100d3ac39462f",
  "args": [],
  "numDeployments": 1,
  "solcInputHash": "cb32256e60e48d2533b22d73a97ba160",
  "bytecode": "0x60806040526658d15e176280006009553480156200001c57600080fd5b506040518060400160405280601081526020017f4d657461766572736520546f6b656e73000000000000000000000000000000008152506040518060400160405280600481526020017f4d4554540000000000000000000000000000000000000000000000000000000081525081600090816200009a919062000370565b508060019081620000ac919062000370565b50505033600a60006101000a81548173ffffffffffffffffffffffffffffffffffffffff021916908373ffffffffffffffffffffffffffffffffffffffff16021790555062000457565b600081519050919050565b7f4e487b7100000000000000000000000000000000000000000000000000000000600052604160045260246000fd5b7f4e487b7100000000000000000000000000000000000000000000000000000000600052602260045260246000fd5b600060028204905060018216806200017857607f821691505b6020821081036200018e576200018d62000130565b5b50919050565b60008190508160005260206000209050919050565b60006020601f8301049050919050565b600082821b905092915050565b600060088302620001f87fffffffffffffffffffffffffffffffffffffffffffffffffffffffffffffffff82620001b9565b620002048683620001b9565b95508019841693508086168417925050509392505050565b6000819050919050565b6000819050919050565b6000620002516200024b62000245846200021c565b62000226565b6200021c565b9050919050565b6000819050919050565b6200026d8362000230565b620002856200027c8262000258565b848454620001c6565b825550505050565b600090565b6200029c6200028d565b620002a981848462000262565b505050565b5b81811015620002d157620002c560008262000292565b600181019050620002af565b5050565b601f8211156200032057620002ea8162000194565b620002f584620001a9565b8101602085101562000305578190505b6200031d6200031485620001a9565b830182620002ae565b50505b505050565b600082821c905092915050565b6000620003456000198460080262000325565b1980831691505092915050565b600062000360838362000332565b9150826002028217905092915050565b6200037b82620000f6565b67ffffffffffffffff81111562000397576200039662000101565b5b620003a382546200015f565b620003b0828285620002d5565b600060209050601f831160018114620003e85760008415620003d3578287015190505b620003df858262000352565b8655506200044f565b601f198416620003f88662000194565b60005b828110156200042257848901518255600182019150602085019450602081019050620003fb565b868310156200044257848901516200043e601f89168262000332565b8355505b6001600288020188555050505b505050505050565b61411a80620004676000396000f3fe60806040526004361061012a5760003560e01c80636352211e116100ab578063ae677aa31161006f578063ae677aa3146103f9578063b88d4fde14610415578063be9af5361461043e578063c87b56dd1461045a578063e219fc7514610497578063e985e9c5146104b35761012a565b80636352211e146102fb57806370a082311461033857806372b3b6201461037557806395d89b41146103a5578063a22cb465146103d05761012a565b806312e85585116100f257806312e8558514610228578063202e37401461025357806323b872dd1461027e57806342842e0e146102a757806345f8fa80146102d05761012a565b806301ffc9a71461012f57806306fdde031461016c578063081812fc14610197578063095ea7b3146101d45780630f08efe0146101fd575b600080fd5b34801561013b57600080fd5b506101566004803603810190610151919061297c565b6104f0565b60405161016391906129c4565b60405180910390f35b34801561017857600080fd5b506101816105d2565b60405161018e9190612a6f565b60405180910390f35b3480156101a357600080fd5b506101be60048036038101906101b99190612ac7565b610664565b6040516101cb9190612b35565b60405180910390f35b3480156101e057600080fd5b506101fb60048036038101906101f69190612b7c565b6106aa565b005b34801561020957600080fd5b506102126107c1565b60405161021f9190612d12565b60405180910390f35b34801561023457600080fd5b5061023d610a29565b60405161024a9190612d43565b60405180910390f35b34801561025f57600080fd5b50610268610a33565b6040516102759190612d12565b60405180910390f35b34801561028a57600080fd5b506102a560048036038101906102a09190612d5e565b610d1f565b005b3480156102b357600080fd5b506102ce60048036038101906102c99190612d5e565b610d7f565b005b3480156102dc57600080fd5b506102e5610d9f565b6040516102f29190612d12565b60405180910390f35b34801561030757600080fd5b50610322600480360381019061031d9190612ac7565b61108b565b60405161032f9190612b35565b60405180910390f35b34801561034457600080fd5b5061035f600480360381019061035a9190612db1565b61113c565b60405161036c9190612d43565b60405180910390f35b61038f600480360381019061038a9190612f13565b6111f3565b60405161039c9190612d43565b60405180910390f35b3480156103b157600080fd5b506103ba611235565b6040516103c79190612a6f565b60405180910390f35b3480156103dc57600080fd5b506103f760048036038101906103f29190612f9b565b6112c7565b005b610413600480360381019061040e9190612ac7565b6112dd565b005b34801561042157600080fd5b5061043c6004803603810190610437919061307c565b611377565b005b61045860048036038101906104539190612ac7565b6113d9565b005b34801561046657600080fd5b50610481600480360381019061047c9190612ac7565b611617565b60405161048e9190612a6f565b60405180910390f35b6104b160048036038101906104ac91906130ff565b611729565b005b3480156104bf57600080fd5b506104da60048036038101906104d5919061313f565b61191e565b6040516104e791906129c4565b60405180910390f35b60007f80ac58cd000000000000000000000000000000000000000000000000000000007bffffffffffffffffffffffffffffffffffffffffffffffffffffffff1916827bffffffffffffffffffffffffffffffffffffffffffffffffffffffff191614806105bb57507f5b5e139f000000000000000000000000000000000000000000000000000000007bffffffffffffffffffffffffffffffffffffffffffffffffffffffff1916827bffffffffffffffffffffffffffffffffffffffffffffffffffffffff1916145b806105cb57506105ca826119b2565b5b9050919050565b6060600080546105e1906131ae565b80601f016020809104026020016040519081016040528092919081815260200182805461060d906131ae565b801561065a5780601f1061062f5761010080835404028352916020019161065a565b820191906000526020600020905b81548152906001019060200180831161063d57829003601f168201915b5050505050905090565b600061066f82611a1c565b6004600083815260200190815260200160002060009054906101000a900473ffffffffffffffffffffffffffffffffffffffff169050919050565b60006106b58261108b565b90508073ffffffffffffffffffffffffffffffffffffffff168373ffffffffffffffffffffffffffffffffffffffff1603610725576040517f08c379a000000000000000000000000000000000000000000000000000000000815260040161071c90613251565b60405180910390fd5b8073ffffffffffffffffffffffffffffffffffffffff16610744611a67565b73ffffffffffffffffffffffffffffffffffffffff16148061077357506107728161076d611a67565b61191e565b5b6107b2576040517f08c379a00000000000000000000000000000000000000000000000000000000081526004016107a9906132e3565b60405180910390fd5b6107bc8383611a6f565b505050565b606060006107cf6007611b28565b905060006107dd6008611b28565b6107e76007611b28565b6107f19190613332565b90506000808267ffffffffffffffff8111156108105761080f612de8565b5b60405190808252806020026020018201604052801561084957816020015b6108366128b3565b81526020019060019003908161082e5790505b50905060005b84811015610a1e573073ffffffffffffffffffffffffffffffffffffffff16600b600060018461087f9190613366565b815260200190815260200160002060020160009054906101000a900473ffffffffffffffffffffffffffffffffffffffff1673ffffffffffffffffffffffffffffffffffffffff1603610a0b5760006001826108db9190613366565b90506000600b60008381526020019081526020016000209050806040518060a0016040529081600082015481526020016001820160009054906101000a900473ffffffffffffffffffffffffffffffffffffffff1673ffffffffffffffffffffffffffffffffffffffff1673ffffffffffffffffffffffffffffffffffffffff1681526020016002820160009054906101000a900473ffffffffffffffffffffffffffffffffffffffff1673ffffffffffffffffffffffffffffffffffffffff1673ffffffffffffffffffffffffffffffffffffffff168152602001600382015481526020016004820160009054906101000a900460ff1615151515815250508486815181106109ee576109ed61339a565b5b6020026020010181905250600185610a069190613366565b945050505b8080610a16906133c9565b91505061084f565b508094505050505090565b6000600954905090565b60606000610a416007611b28565b905060008060005b83811015610ae9573373ffffffffffffffffffffffffffffffffffffffff16600b6000600184610a799190613366565b815260200190815260200160002060020160009054906101000a900473ffffffffffffffffffffffffffffffffffffffff1673ffffffffffffffffffffffffffffffffffffffff1603610ad657600183610ad39190613366565b92505b8080610ae1906133c9565b915050610a49565b5060008267ffffffffffffffff811115610b0657610b05612de8565b5b604051908082528060200260200182016040528015610b3f57816020015b610b2c6128b3565b815260200190600190039081610b245790505b50905060005b84811015610d14573373ffffffffffffffffffffffffffffffffffffffff16600b6000600184610b759190613366565b815260200190815260200160002060020160009054906101000a900473ffffffffffffffffffffffffffffffffffffffff1673ffffffffffffffffffffffffffffffffffffffff1603610d01576000600182610bd19190613366565b90506000600b60008381526020019081526020016000209050806040518060a0016040529081600082015481526020016001820160009054906101000a900473ffffffffffffffffffffffffffffffffffffffff1673ffffffffffffffffffffffffffffffffffffffff1673ffffffffffffffffffffffffffffffffffffffff1681526020016002820160009054906101000a900473ffffffffffffffffffffffffffffffffffffffff1673ffffffffffffffffffffffffffffffffffffffff1673ffffffffffffffffffffffffffffffffffffffff168152602001600382015481526020016004820160009054906101000a900460ff161515151581525050848681518110610ce457610ce361339a565b5b6020026020010181905250600185610cfc9190613366565b945050505b8080610d0c906133c9565b915050610b45565b508094505050505090565b610d30610d2a611a67565b82611b36565b610d6f576040517f08c379a0000000000000000000000000000000000000000000000000000000008152600401610d6690613483565b60405180910390fd5b610d7a838383611bcb565b505050565b610d9a83838360405180602001604052806000815250611377565b505050565b60606000610dad6007611b28565b905060008060005b83811015610e55573373ffffffffffffffffffffffffffffffffffffffff16600b6000600184610de59190613366565b815260200190815260200160002060010160009054906101000a900473ffffffffffffffffffffffffffffffffffffffff1673ffffffffffffffffffffffffffffffffffffffff1603610e4257600183610e3f9190613366565b92505b8080610e4d906133c9565b915050610db5565b5060008267ffffffffffffffff811115610e7257610e71612de8565b5b604051908082528060200260200182016040528015610eab57816020015b610e986128b3565b815260200190600190039081610e905790505b50905060005b84811015611080573373ffffffffffffffffffffffffffffffffffffffff16600b6000600184610ee19190613366565b815260200190815260200160002060010160009054906101000a900473ffffffffffffffffffffffffffffffffffffffff1673ffffffffffffffffffffffffffffffffffffffff160361106d576000600182610f3d9190613366565b90506000600b60008381526020019081526020016000209050806040518060a0016040529081600082015481526020016001820160009054906101000a900473ffffffffffffffffffffffffffffffffffffffff1673ffffffffffffffffffffffffffffffffffffffff1673ffffffffffffffffffffffffffffffffffffffff1681526020016002820160009054906101000a900473ffffffffffffffffffffffffffffffffffffffff1673ffffffffffffffffffffffffffffffffffffffff1673ffffffffffffffffffffffffffffffffffffffff168152602001600382015481526020016004820160009054906101000a900460ff1615151515815250508486815181106110505761104f61339a565b5b60200260200101819052506001856110689190613366565b945050505b8080611078906133c9565b915050610eb1565b508094505050505090565b6000806002600084815260200190815260200160002060009054906101000a900473ffffffffffffffffffffffffffffffffffffffff169050600073ffffffffffffffffffffffffffffffffffffffff168173ffffffffffffffffffffffffffffffffffffffff1603611133576040517f08c379a000000000000000000000000000000000000000000000000000000000815260040161112a906134ef565b60405180910390fd5b80915050919050565b60008073ffffffffffffffffffffffffffffffffffffffff168273ffffffffffffffffffffffffffffffffffffffff16036111ac576040517f08c379a00000000000000000000000000000000000000000000000000000000081526004016111a390613581565b60405180910390fd5b600360008373ffffffffffffffffffffffffffffffffffffffff1673ffffffffffffffffffffffffffffffffffffffff168152602001908152602001600020549050919050565b60006111ff6007611e31565b600061120b6007611b28565b90506112173382611e47565b6112218185612020565b61122b818461208d565b8091505092915050565b606060018054611244906131ae565b80601f0160208091040260200160405190810160405280929190818152602001828054611270906131ae565b80156112bd5780601f10611292576101008083540402835291602001916112bd565b820191906000526020600020905b8154815290600101906020018083116112a057829003601f168201915b5050505050905090565b6112d96112d2611a67565b8383612290565b5050565b3373ffffffffffffffffffffffffffffffffffffffff16600a60009054906101000a900473ffffffffffffffffffffffffffffffffffffffff1673ffffffffffffffffffffffffffffffffffffffff161461136d576040517f08c379a000000000000000000000000000000000000000000000000000000000815260040161136490613613565b60405180910390fd5b8060098190555050565b611388611382611a67565b83611b36565b6113c7576040517f08c379a00000000000000000000000000000000000000000000000000000000081526004016113be90613483565b60405180910390fd5b6113d3848484846123fc565b50505050565b6000600b60008381526020019081526020016000206003015490506000600b600084815260200190815260200160002060010160009054906101000a900473ffffffffffffffffffffffffffffffffffffffff169050813414611471576040517f08c379a0000000000000000000000000000000000000000000000000000000008152600401611468906136a5565b60405180910390fd5b33600b600085815260200190815260200160002060020160006101000a81548173ffffffffffffffffffffffffffffffffffffffff021916908373ffffffffffffffffffffffffffffffffffffffff1602179055506001600b600085815260200190815260200160002060040160006101000a81548160ff0219169083151502179055506000600b600085815260200190815260200160002060010160006101000a81548173ffffffffffffffffffffffffffffffffffffffff021916908373ffffffffffffffffffffffffffffffffffffffff1602179055506115556008611e31565b611560303385611bcb565b600a60009054906101000a900473ffffffffffffffffffffffffffffffffffffffff1673ffffffffffffffffffffffffffffffffffffffff166108fc6009549081150290604051600060405180830381858888f193505050501580156115ca573d6000803e3d6000fd5b508073ffffffffffffffffffffffffffffffffffffffff166108fc349081150290604051600060405180830381858888f19350505050158015611611573d6000803e3d6000fd5b50505050565b606061162282611a1c565b6000600660008481526020019081526020016000208054611642906131ae565b80601f016020809104026020016040519081016040528092919081815260200182805461166e906131ae565b80156116bb5780601f10611690576101008083540402835291602001916116bb565b820191906000526020600020905b81548152906001019060200180831161169e57829003601f168201915b5050505050905060006116cc612458565b905060008151036116e1578192505050611724565b6000825111156117165780826040516020016116fe929190613701565b60405160208183030381529060405292505050611724565b61171f8461246f565b925050505b919050565b3373ffffffffffffffffffffffffffffffffffffffff16600b600084815260200190815260200160002060020160009054906101000a900473ffffffffffffffffffffffffffffffffffffffff1673ffffffffffffffffffffffffffffffffffffffff16146117cd576040517f08c379a00000000000000000000000000000000000000000000000000000000081526004016117c490613797565b60405180910390fd5b6009543414611811576040517f08c379a000000000000000000000000000000000000000000000000000000000815260040161180890613829565b60405180910390fd5b6000600b600084815260200190815260200160002060040160006101000a81548160ff02191690831515021790555080600b60008481526020019081526020016000206003018190555033600b600084815260200190815260200160002060010160006101000a81548173ffffffffffffffffffffffffffffffffffffffff021916908373ffffffffffffffffffffffffffffffffffffffff16021790555030600b600084815260200190815260200160002060020160006101000a81548173ffffffffffffffffffffffffffffffffffffffff021916908373ffffffffffffffffffffffffffffffffffffffff16021790555061190f60086124d7565b61191a333084611bcb565b5050565b6000600560008473ffffffffffffffffffffffffffffffffffffffff1673ffffffffffffffffffffffffffffffffffffffff16815260200190815260200160002060008373ffffffffffffffffffffffffffffffffffffffff1673ffffffffffffffffffffffffffffffffffffffff16815260200190815260200160002060009054906101000a900460ff16905092915050565b60007f01ffc9a7000000000000000000000000000000000000000000000000000000007bffffffffffffffffffffffffffffffffffffffffffffffffffffffff1916827bffffffffffffffffffffffffffffffffffffffffffffffffffffffff1916149050919050565b611a2581612533565b611a64576040517f08c379a0000000000000000000000000000000000000000000000000000000008152600401611a5b906134ef565b60405180910390fd5b50565b600033905090565b816004600083815260200190815260200160002060006101000a81548173ffffffffffffffffffffffffffffffffffffffff021916908373ffffffffffffffffffffffffffffffffffffffff160217905550808273ffffffffffffffffffffffffffffffffffffffff16611ae28361108b565b73ffffffffffffffffffffffffffffffffffffffff167f8c5be1e5ebec7d5bd14f71427d1e84f3dd0314c0f7b2291e5b200ac8c7c3b92560405160405180910390a45050565b600081600001549050919050565b600080611b428361108b565b90508073ffffffffffffffffffffffffffffffffffffffff168473ffffffffffffffffffffffffffffffffffffffff161480611b845750611b83818561191e565b5b80611bc257508373ffffffffffffffffffffffffffffffffffffffff16611baa84610664565b73ffffffffffffffffffffffffffffffffffffffff16145b91505092915050565b8273ffffffffffffffffffffffffffffffffffffffff16611beb8261108b565b73ffffffffffffffffffffffffffffffffffffffff1614611c41576040517f08c379a0000000000000000000000000000000000000000000000000000000008152600401611c38906138bb565b60405180910390fd5b600073ffffffffffffffffffffffffffffffffffffffff168273ffffffffffffffffffffffffffffffffffffffff1603611cb0576040517f08c379a0000000000000000000000000000000000000000000000000000000008152600401611ca79061394d565b60405180910390fd5b611cbb83838361259f565b611cc6600082611a6f565b6001600360008573ffffffffffffffffffffffffffffffffffffffff1673ffffffffffffffffffffffffffffffffffffffff1681526020019081526020016000206000828254611d169190613332565b925050819055506001600360008473ffffffffffffffffffffffffffffffffffffffff1673ffffffffffffffffffffffffffffffffffffffff1681526020019081526020016000206000828254611d6d9190613366565b92505081905550816002600083815260200190815260200160002060006101000a81548173ffffffffffffffffffffffffffffffffffffffff021916908373ffffffffffffffffffffffffffffffffffffffff160217905550808273ffffffffffffffffffffffffffffffffffffffff168473ffffffffffffffffffffffffffffffffffffffff167fddf252ad1be2c89b69c2b068fc378daa952ba7f163c4a11628f55a4df523b3ef60405160405180910390a4611e2c8383836125a4565b505050565b6001816000016000828254019250508190555050565b600073ffffffffffffffffffffffffffffffffffffffff168273ffffffffffffffffffffffffffffffffffffffff1603611eb6576040517f08c379a0000000000000000000000000000000000000000000000000000000008152600401611ead906139b9565b60405180910390fd5b611ebf81612533565b15611eff576040517f08c379a0000000000000000000000000000000000000000000000000000000008152600401611ef690613a25565b60405180910390fd5b611f0b6000838361259f565b6001600360008473ffffffffffffffffffffffffffffffffffffffff1673ffffffffffffffffffffffffffffffffffffffff1681526020019081526020016000206000828254611f5b9190613366565b92505081905550816002600083815260200190815260200160002060006101000a81548173ffffffffffffffffffffffffffffffffffffffff021916908373ffffffffffffffffffffffffffffffffffffffff160217905550808273ffffffffffffffffffffffffffffffffffffffff16600073ffffffffffffffffffffffffffffffffffffffff167fddf252ad1be2c89b69c2b068fc378daa952ba7f163c4a11628f55a4df523b3ef60405160405180910390a461201c600083836125a4565b5050565b61202982612533565b612068576040517f08c379a000000000000000000000000000000000000000000000000000000000815260040161205f90613ab7565b60405180910390fd5b806006600084815260200190815260200160002090816120889190613c83565b505050565b600081116120d0576040517f08c379a00000000000000000000000000000000000000000000000000000000081526004016120c790613da1565b60405180910390fd5b6009543414612114576040517f08c379a000000000000000000000000000000000000000000000000000000000815260040161210b90613829565b60405180910390fd5b6040518060a001604052808381526020013373ffffffffffffffffffffffffffffffffffffffff1681526020013073ffffffffffffffffffffffffffffffffffffffff16815260200182815260200160001515815250600b60008481526020019081526020016000206000820151816000015560208201518160010160006101000a81548173ffffffffffffffffffffffffffffffffffffffff021916908373ffffffffffffffffffffffffffffffffffffffff16021790555060408201518160020160006101000a81548173ffffffffffffffffffffffffffffffffffffffff021916908373ffffffffffffffffffffffffffffffffffffffff1602179055506060820151816003015560808201518160040160006101000a81548160ff02191690831515021790555090505061224d333084611bcb565b817fb640004f1d14576d0c209e240cad0410e0d8c0c33a09375861fbadae2588a98d33308460006040516122849493929190613dc1565b60405180910390a25050565b8173ffffffffffffffffffffffffffffffffffffffff168373ffffffffffffffffffffffffffffffffffffffff16036122fe576040517f08c379a00000000000000000000000000000000000000000000000000000000081526004016122f590613e52565b60405180910390fd5b80600560008573ffffffffffffffffffffffffffffffffffffffff1673ffffffffffffffffffffffffffffffffffffffff16815260200190815260200160002060008473ffffffffffffffffffffffffffffffffffffffff1673ffffffffffffffffffffffffffffffffffffffff16815260200190815260200160002060006101000a81548160ff0219169083151502179055508173ffffffffffffffffffffffffffffffffffffffff168373ffffffffffffffffffffffffffffffffffffffff167f17307eab39ab6107e8899845ad3d59bd9653f200f220920489ca2b5937696c31836040516123ef91906129c4565b60405180910390a3505050565b612407848484611bcb565b612413848484846125a9565b612452576040517f08c379a000000000000000000000000000000000000000000000000000000000815260040161244990613ee4565b60405180910390fd5b50505050565b606060405180602001604052806000815250905090565b606061247a82611a1c565b6000612484612458565b905060008151116124a457604051806020016040528060008152506124cf565b806124ae84612730565b6040516020016124bf929190613701565b6040516020818303038152906040525b915050919050565b60008160000154905060008111612523576040517f08c379a000000000000000000000000000000000000000000000000000000000815260040161251a90613f50565b60405180910390fd5b6001810382600001819055505050565b60008073ffffffffffffffffffffffffffffffffffffffff166002600084815260200190815260200160002060009054906101000a900473ffffffffffffffffffffffffffffffffffffffff1673ffffffffffffffffffffffffffffffffffffffff1614159050919050565b505050565b505050565b60006125ca8473ffffffffffffffffffffffffffffffffffffffff16612890565b15612723578373ffffffffffffffffffffffffffffffffffffffff1663150b7a026125f3611a67565b8786866040518563ffffffff1660e01b81526004016126159493929190613fc5565b6020604051808303816000875af192505050801561265157506040513d601f19601f8201168201806040525081019061264e9190614026565b60015b6126d3573d8060008114612681576040519150601f19603f3d011682016040523d82523d6000602084013e612686565b606091505b5060008151036126cb576040517f08c379a00000000000000000000000000000000000000000000000000000000081526004016126c290613ee4565b60405180910390fd5b805181602001fd5b63150b7a0260e01b7bffffffffffffffffffffffffffffffffffffffffffffffffffffffff1916817bffffffffffffffffffffffffffffffffffffffffffffffffffffffff191614915050612728565b600190505b949350505050565b606060008203612777576040518060400160405280600181526020017f3000000000000000000000000000000000000000000000000000000000000000815250905061288b565b600082905060005b600082146127a9578080612792906133c9565b915050600a826127a29190614082565b915061277f565b60008167ffffffffffffffff8111156127c5576127c4612de8565b5b6040519080825280601f01601f1916602001820160405280156127f75781602001600182028036833780820191505090505b5090505b60008514612884576001826128109190613332565b9150600a8561281f91906140b3565b603061282b9190613366565b60f81b8183815181106128415761284061339a565b5b60200101907effffffffffffffffffffffffffffffffffffffffffffffffffffffffffffff1916908160001a905350600a8561287d9190614082565b94506127fb565b8093505050505b919050565b6000808273ffffffffffffffffffffffffffffffffffffffff163b119050919050565b6040518060a0016040528060008152602001600073ffffffffffffffffffffffffffffffffffffffff168152602001600073ffffffffffffffffffffffffffffffffffffffff168152602001600081526020016000151581525090565b6000604051905090565b600080fd5b600080fd5b60007fffffffff0000000000000000000000000000000000000000000000000000000082169050919050565b61295981612924565b811461296457600080fd5b50565b60008135905061297681612950565b92915050565b6000602082840312156129925761299161291a565b5b60006129a084828501612967565b91505092915050565b60008115159050919050565b6129be816129a9565b82525050565b60006020820190506129d960008301846129b5565b92915050565b600081519050919050565b600082825260208201905092915050565b60005b83811015612a195780820151818401526020810190506129fe565b60008484015250505050565b6000601f19601f8301169050919050565b6000612a41826129df565b612a4b81856129ea565b9350612a5b8185602086016129fb565b612a6481612a25565b840191505092915050565b60006020820190508181036000830152612a898184612a36565b905092915050565b6000819050919050565b612aa481612a91565b8114612aaf57600080fd5b50565b600081359050612ac181612a9b565b92915050565b600060208284031215612add57612adc61291a565b5b6000612aeb84828501612ab2565b91505092915050565b600073ffffffffffffffffffffffffffffffffffffffff82169050919050565b6000612b1f82612af4565b9050919050565b612b2f81612b14565b82525050565b6000602082019050612b4a6000830184612b26565b92915050565b612b5981612b14565b8114612b6457600080fd5b50565b600081359050612b7681612b50565b92915050565b60008060408385031215612b9357612b9261291a565b5b6000612ba185828601612b67565b9250506020612bb285828601612ab2565b9150509250929050565b600081519050919050565b600082825260208201905092915050565b6000819050602082019050919050565b612bf181612a91565b82525050565b6000612c0282612af4565b9050919050565b612c1281612bf7565b82525050565b612c21816129a9565b82525050565b60a082016000820151612c3d6000850182612be8565b506020820151612c506020850182612c09565b506040820151612c636040850182612c09565b506060820151612c766060850182612be8565b506080820151612c896080850182612c18565b50505050565b6000612c9b8383612c27565b60a08301905092915050565b6000602082019050919050565b6000612cbf82612bbc565b612cc98185612bc7565b9350612cd483612bd8565b8060005b83811015612d05578151612cec8882612c8f565b9750612cf783612ca7565b925050600181019050612cd8565b5085935050505092915050565b60006020820190508181036000830152612d2c8184612cb4565b905092915050565b612d3d81612a91565b82525050565b6000602082019050612d586000830184612d34565b92915050565b600080600060608486031215612d7757612d7661291a565b5b6000612d8586828701612b67565b9350506020612d9686828701612b67565b9250506040612da786828701612ab2565b9150509250925092565b600060208284031215612dc757612dc661291a565b5b6000612dd584828501612b67565b91505092915050565b600080fd5b600080fd5b7f4e487b7100000000000000000000000000000000000000000000000000000000600052604160045260246000fd5b612e2082612a25565b810181811067ffffffffffffffff82111715612e3f57612e3e612de8565b5b80604052505050565b6000612e52612910565b9050612e5e8282612e17565b919050565b600067ffffffffffffffff821115612e7e57612e7d612de8565b5b612e8782612a25565b9050602081019050919050565b82818337600083830152505050565b6000612eb6612eb184612e63565b612e48565b905082815260208101848484011115612ed257612ed1612de3565b5b612edd848285612e94565b509392505050565b600082601f830112612efa57612ef9612dde565b5b8135612f0a848260208601612ea3565b91505092915050565b60008060408385031215612f2a57612f2961291a565b5b600083013567ffffffffffffffff811115612f4857612f4761291f565b5b612f5485828601612ee5565b9250506020612f6585828601612ab2565b9150509250929050565b612f78816129a9565b8114612f8357600080fd5b50565b600081359050612f9581612f6f565b92915050565b60008060408385031215612fb257612fb161291a565b5b6000612fc085828601612b67565b9250506020612fd185828601612f86565b9150509250929050565b600067ffffffffffffffff821115612ff657612ff5612de8565b5b612fff82612a25565b9050602081019050919050565b600061301f61301a84612fdb565b612e48565b90508281526020810184848401111561303b5761303a612de3565b5b613046848285612e94565b509392505050565b600082601f83011261306357613062612dde565b5b813561307384826020860161300c565b91505092915050565b600080600080608085870312156130965761309561291a565b5b60006130a487828801612b67565b94505060206130b587828801612b67565b93505060406130c687828801612ab2565b925050606085013567ffffffffffffffff8111156130e7576130e661291f565b5b6130f38782880161304e565b91505092959194509250565b600080604083850312156131165761311561291a565b5b600061312485828601612ab2565b925050602061313585828601612ab2565b9150509250929050565b600080604083850312156131565761315561291a565b5b600061316485828601612b67565b925050602061317585828601612b67565b9150509250929050565b7f4e487b7100000000000000000000000000000000000000000000000000000000600052602260045260246000fd5b600060028204905060018216806131c657607f821691505b6020821081036131d9576131d861317f565b5b50919050565b7f4552433732313a20617070726f76616c20746f2063757272656e74206f776e6560008201527f7200000000000000000000000000000000000000000000000000000000000000602082015250565b600061323b6021836129ea565b9150613246826131df565b604082019050919050565b6000602082019050818103600083015261326a8161322e565b9050919050565b7f4552433732313a20617070726f76652063616c6c6572206973206e6f7420746f60008201527f6b656e206f776e6572206e6f7220617070726f76656420666f7220616c6c0000602082015250565b60006132cd603e836129ea565b91506132d882613271565b604082019050919050565b600060208201905081810360008301526132fc816132c0565b9050919050565b7f4e487b7100000000000000000000000000000000000000000000000000000000600052601160045260246000fd5b600061333d82612a91565b915061334883612a91565b92508282039050818111156133605761335f613303565b5b92915050565b600061337182612a91565b915061337c83612a91565b925082820190508082111561339457613393613303565b5b92915050565b7f4e487b7100000000000000000000000000000000000000000000000000000000600052603260045260246000fd5b60006133d482612a91565b91507fffffffffffffffffffffffffffffffffffffffffffffffffffffffffffffffff820361340657613405613303565b5b600182019050919050565b7f4552433732313a2063616c6c6572206973206e6f7420746f6b656e206f776e6560008201527f72206e6f7220617070726f766564000000000000000000000000000000000000602082015250565b600061346d602e836129ea565b915061347882613411565b604082019050919050565b6000602082019050818103600083015261349c81613460565b9050919050565b7f4552433732313a20696e76616c696420746f6b656e2049440000000000000000600082015250565b60006134d96018836129ea565b91506134e4826134a3565b602082019050919050565b60006020820190508181036000830152613508816134cc565b9050919050565b7f4552433732313a2061646472657373207a65726f206973206e6f74206120766160008201527f6c6964206f776e65720000000000000000000000000000000000000000000000602082015250565b600061356b6029836129ea565b91506135768261350f565b604082019050919050565b6000602082019050818103600083015261359a8161355e565b9050919050565b7f4f6e6c79206d61726b6574706c616365206f776e65722063616e20757064617460008201527f65206c697374696e672070726963652e00000000000000000000000000000000602082015250565b60006135fd6030836129ea565b9150613608826135a1565b604082019050919050565b6000602082019050818103600083015261362c816135f0565b9050919050565b7f506c65617365207375626d6974207468652061736b696e67207072696365206960008201527f6e206f7264657220746f20636f6d706c65746520746865207075726368617365602082015250565b600061368f6040836129ea565b915061369a82613633565b604082019050919050565b600060208201905081810360008301526136be81613682565b9050919050565b600081905092915050565b60006136db826129df565b6136e581856136c5565b93506136f58185602086016129fb565b80840191505092915050565b600061370d82856136d0565b915061371982846136d0565b91508190509392505050565b7f4f6e6c79206974656d206f776e65722063616e20706572666f726d207468697360008201527f206f7065726174696f6e00000000000000000000000000000000000000000000602082015250565b6000613781602a836129ea565b915061378c82613725565b604082019050919050565b600060208201905081810360008301526137b081613774565b9050919050565b7f5072696365206d75737420626520657175616c20746f206c697374696e67207060008201527f7269636500000000000000000000000000000000000000000000000000000000602082015250565b60006138136024836129ea565b915061381e826137b7565b604082019050919050565b6000602082019050818103600083015261384281613806565b9050919050565b7f4552433732313a207472616e736665722066726f6d20696e636f72726563742060008201527f6f776e6572000000000000000000000000000000000000000000000000000000602082015250565b60006138a56025836129ea565b91506138b082613849565b604082019050919050565b600060208201905081810360008301526138d481613898565b9050919050565b7f4552433732313a207472616e7366657220746f20746865207a65726f2061646460008201527f7265737300000000000000000000000000000000000000000000000000000000602082015250565b60006139376024836129ea565b9150613942826138db565b604082019050919050565b600060208201905081810360008301526139668161392a565b9050919050565b7f4552433732313a206d696e7420746f20746865207a65726f2061646472657373600082015250565b60006139a36020836129ea565b91506139ae8261396d565b602082019050919050565b600060208201905081810360008301526139d281613996565b9050919050565b7f4552433732313a20746f6b656e20616c7265616479206d696e74656400000000600082015250565b6000613a0f601c836129ea565b9150613a1a826139d9565b602082019050919050565b60006020820190508181036000830152613a3e81613a02565b9050919050565b7f45524337323155524953746f726167653a2055524920736574206f66206e6f6e60008201527f6578697374656e7420746f6b656e000000000000000000000000000000000000602082015250565b6000613aa1602e836129ea565b9150613aac82613a45565b604082019050919050565b60006020820190508181036000830152613ad081613a94565b9050919050565b60008190508160005260206000209050919050565b60006020601f8301049050919050565b600082821b905092915050565b600060088302613b397fffffffffffffffffffffffffffffffffffffffffffffffffffffffffffffffff82613afc565b613b438683613afc565b95508019841693508086168417925050509392505050565b6000819050919050565b6000613b80613b7b613b7684612a91565b613b5b565b612a91565b9050919050565b6000819050919050565b613b9a83613b65565b613bae613ba682613b87565b848454613b09565b825550505050565b600090565b613bc3613bb6565b613bce818484613b91565b505050565b5b81811015613bf257613be7600082613bbb565b600181019050613bd4565b5050565b601f821115613c3757613c0881613ad7565b613c1184613aec565b81016020851015613c20578190505b613c34613c2c85613aec565b830182613bd3565b50505b505050565b600082821c905092915050565b6000613c5a60001984600802613c3c565b1980831691505092915050565b6000613c738383613c49565b9150826002028217905092915050565b613c8c826129df565b67ffffffffffffffff811115613ca557613ca4612de8565b5b613caf82546131ae565b613cba828285613bf6565b600060209050601f831160018114613ced5760008415613cdb578287015190505b613ce58582613c67565b865550613d4d565b601f198416613cfb86613ad7565b60005b82811015613d2357848901518255600182019150602085019450602081019050613cfe565b86831015613d405784890151613d3c601f891682613c49565b8355505b6001600288020188555050505b505050505050565b7f5072696365206d757374206265206174206c6561737420312077656900000000600082015250565b6000613d8b601c836129ea565b9150613d9682613d55565b602082019050919050565b60006020820190508181036000830152613dba81613d7e565b9050919050565b6000608082019050613dd66000830187612b26565b613de36020830186612b26565b613df06040830185612d34565b613dfd60608301846129b5565b95945050505050565b7f4552433732313a20617070726f766520746f2063616c6c657200000000000000600082015250565b6000613e3c6019836129ea565b9150613e4782613e06565b602082019050919050565b60006020820190508181036000830152613e6b81613e2f565b9050919050565b7f4552433732313a207472616e7366657220746f206e6f6e20455243373231526560008201527f63656976657220696d706c656d656e7465720000000000000000000000000000602082015250565b6000613ece6032836129ea565b9150613ed982613e72565b604082019050919050565b60006020820190508181036000830152613efd81613ec1565b9050919050565b7f436f756e7465723a2064656372656d656e74206f766572666c6f770000000000600082015250565b6000613f3a601b836129ea565b9150613f4582613f04565b602082019050919050565b60006020820190508181036000830152613f6981613f2d565b9050919050565b600081519050919050565b600082825260208201905092915050565b6000613f9782613f70565b613fa18185613f7b565b9350613fb18185602086016129fb565b613fba81612a25565b840191505092915050565b6000608082019050613fda6000830187612b26565b613fe76020830186612b26565b613ff46040830185612d34565b81810360608301526140068184613f8c565b905095945050505050565b60008151905061402081612950565b92915050565b60006020828403121561403c5761403b61291a565b5b600061404a84828501614011565b91505092915050565b7f4e487b7100000000000000000000000000000000000000000000000000000000600052601260045260246000fd5b600061408d82612a91565b915061409883612a91565b9250826140a8576140a7614053565b5b828204905092915050565b60006140be82612a91565b91506140c983612a91565b9250826140d9576140d8614053565b5b82820690509291505056fea264697066735822122068e581e48c566a804b894035826664d665f826a86d42a94d1972d6aee8d9b89e64736f6c63430008110033",
  "devdoc": {
    "kind": "dev",
    "methods": {
      "approve(address,uint256)": {
        "details": "See {IERC721-approve}."
      },
      "balanceOf(address)": {
        "details": "See {IERC721-balanceOf}."
      },
      "getApproved(uint256)": {
        "details": "See {IERC721-getApproved}."
      },
      "isApprovedForAll(address,address)": {
        "details": "See {IERC721-isApprovedForAll}."
      },
      "name()": {
        "details": "See {IERC721Metadata-name}."
      },
      "ownerOf(uint256)": {
        "details": "See {IERC721-ownerOf}."
      },
      "safeTransferFrom(address,address,uint256)": {
        "details": "See {IERC721-safeTransferFrom}."
      },
      "safeTransferFrom(address,address,uint256,bytes)": {
        "details": "See {IERC721-safeTransferFrom}."
      },
      "setApprovalForAll(address,bool)": {
        "details": "See {IERC721-setApprovalForAll}."
      },
      "supportsInterface(bytes4)": {
        "details": "See {IERC165-supportsInterface}."
      },
      "symbol()": {
        "details": "See {IERC721Metadata-symbol}."
      },
      "tokenURI(uint256)": {
        "details": "See {IERC721Metadata-tokenURI}."
      },
      "transferFrom(address,address,uint256)": {
        "details": "See {IERC721-transferFrom}."
      }
    },
    "version": 1
  },
  "userdoc": {
    "kind": "user",
    "methods": {},
    "version": 1
  },
  "storageLayout": {
    "storage": [
      {
        "astId": 25,
        "contract": "contracts/NFTMarketplace.sol:NFTMarketplace",
        "label": "_name",
        "offset": 0,
        "slot": "0",
        "type": "t_string_storage"
      },
      {
        "astId": 27,
        "contract": "contracts/NFTMarketplace.sol:NFTMarketplace",
        "label": "_symbol",
        "offset": 0,
        "slot": "1",
        "type": "t_string_storage"
      },
      {
        "astId": 31,
        "contract": "contracts/NFTMarketplace.sol:NFTMarketplace",
        "label": "_owners",
        "offset": 0,
        "slot": "2",
        "type": "t_mapping(t_uint256,t_address)"
      },
      {
        "astId": 35,
        "contract": "contracts/NFTMarketplace.sol:NFTMarketplace",
        "label": "_balances",
        "offset": 0,
        "slot": "3",
        "type": "t_mapping(t_address,t_uint256)"
      },
      {
        "astId": 39,
        "contract": "contracts/NFTMarketplace.sol:NFTMarketplace",
        "label": "_tokenApprovals",
        "offset": 0,
        "slot": "4",
        "type": "t_mapping(t_uint256,t_address)"
      },
      {
        "astId": 45,
        "contract": "contracts/NFTMarketplace.sol:NFTMarketplace",
        "label": "_operatorApprovals",
        "offset": 0,
        "slot": "5",
        "type": "t_mapping(t_address,t_mapping(t_address,t_bool))"
      },
      {
        "astId": 1013,
        "contract": "contracts/NFTMarketplace.sol:NFTMarketplace",
        "label": "_tokenURIs",
        "offset": 0,
        "slot": "6",
        "type": "t_mapping(t_uint256,t_string_storage)"
      },
      {
        "astId": 1820,
        "contract": "contracts/NFTMarketplace.sol:NFTMarketplace",
        "label": "_tokenIds",
        "offset": 0,
        "slot": "7",
        "type": "t_struct(Counter)1475_storage"
      },
      {
        "astId": 1823,
        "contract": "contracts/NFTMarketplace.sol:NFTMarketplace",
        "label": "_itemsSold",
        "offset": 0,
        "slot": "8",
        "type": "t_struct(Counter)1475_storage"
      },
      {
        "astId": 1826,
        "contract": "contracts/NFTMarketplace.sol:NFTMarketplace",
        "label": "listingPrice",
        "offset": 0,
        "slot": "9",
        "type": "t_uint256"
      },
      {
        "astId": 1828,
        "contract": "contracts/NFTMarketplace.sol:NFTMarketplace",
        "label": "owner",
        "offset": 0,
        "slot": "10",
        "type": "t_address_payable"
      },
      {
        "astId": 1833,
        "contract": "contracts/NFTMarketplace.sol:NFTMarketplace",
        "label": "idToMarketItem",
        "offset": 0,
        "slot": "11",
        "type": "t_mapping(t_uint256,t_struct(MarketItem)1844_storage)"
      }
    ],
    "types": {
      "t_address": {
        "encoding": "inplace",
        "label": "address",
        "numberOfBytes": "20"
      },
      "t_address_payable": {
        "encoding": "inplace",
        "label": "address payable",
        "numberOfBytes": "20"
      },
      "t_bool": {
        "encoding": "inplace",
        "label": "bool",
        "numberOfBytes": "1"
      },
      "t_mapping(t_address,t_bool)": {
        "encoding": "mapping",
        "key": "t_address",
        "label": "mapping(address => bool)",
        "numberOfBytes": "32",
        "value": "t_bool"
      },
      "t_mapping(t_address,t_mapping(t_address,t_bool))": {
        "encoding": "mapping",
        "key": "t_address",
        "label": "mapping(address => mapping(address => bool))",
        "numberOfBytes": "32",
        "value": "t_mapping(t_address,t_bool)"
      },
      "t_mapping(t_address,t_uint256)": {
        "encoding": "mapping",
        "key": "t_address",
        "label": "mapping(address => uint256)",
        "numberOfBytes": "32",
        "value": "t_uint256"
      },
      "t_mapping(t_uint256,t_address)": {
        "encoding": "mapping",
        "key": "t_uint256",
        "label": "mapping(uint256 => address)",
        "numberOfBytes": "32",
        "value": "t_address"
      },
      "t_mapping(t_uint256,t_string_storage)": {
        "encoding": "mapping",
        "key": "t_uint256",
        "label": "mapping(uint256 => string)",
        "numberOfBytes": "32",
        "value": "t_string_storage"
      },
      "t_mapping(t_uint256,t_struct(MarketItem)1844_storage)": {
        "encoding": "mapping",
        "key": "t_uint256",
        "label": "mapping(uint256 => struct NFTMarketplace.MarketItem)",
        "numberOfBytes": "32",
        "value": "t_struct(MarketItem)1844_storage"
      },
      "t_string_storage": {
        "encoding": "bytes",
        "label": "string",
        "numberOfBytes": "32"
      },
      "t_struct(Counter)1475_storage": {
        "encoding": "inplace",
        "label": "struct Counters.Counter",
        "members": [
          {
            "astId": 1474,
            "contract": "contracts/NFTMarketplace.sol:NFTMarketplace",
            "label": "_value",
            "offset": 0,
            "slot": "0",
            "type": "t_uint256"
          }
        ],
        "numberOfBytes": "32"
      },
      "t_struct(MarketItem)1844_storage": {
        "encoding": "inplace",
        "label": "struct NFTMarketplace.MarketItem",
        "members": [
          {
            "astId": 1835,
            "contract": "contracts/NFTMarketplace.sol:NFTMarketplace",
            "label": "tokenId",
            "offset": 0,
            "slot": "0",
            "type": "t_uint256"
          },
          {
            "astId": 1837,
            "contract": "contracts/NFTMarketplace.sol:NFTMarketplace",
            "label": "seller",
            "offset": 0,
            "slot": "1",
            "type": "t_address_payable"
          },
          {
            "astId": 1839,
            "contract": "contracts/NFTMarketplace.sol:NFTMarketplace",
            "label": "owner",
            "offset": 0,
            "slot": "2",
            "type": "t_address_payable"
          },
          {
            "astId": 1841,
            "contract": "contracts/NFTMarketplace.sol:NFTMarketplace",
            "label": "price",
            "offset": 0,
            "slot": "3",
            "type": "t_uint256"
          },
          {
            "astId": 1843,
            "contract": "contracts/NFTMarketplace.sol:NFTMarketplace",
            "label": "sold",
            "offset": 0,
            "slot": "4",
            "type": "t_bool"
          }
        ],
        "numberOfBytes": "160"
      },
      "t_uint256": {
        "encoding": "inplace",
        "label": "uint256",
        "numberOfBytes": "32"
      }
    }
  }
}